{
  "contractName": "MockPriceOracle",
  "abi": [
    {
      "inputs": [
        {
          "internalType": "int256",
          "name": "_initialPrice",
          "type": "int256"
        }
      ],
      "stateMutability": "nonpayable",
      "type": "constructor"
    },
    {
      "inputs": [],
      "name": "latestRoundData",
      "outputs": [
        {
          "internalType": "uint80",
          "name": "roundID",
          "type": "uint80"
        },
        {
          "internalType": "int256",
          "name": "answer",
          "type": "int256"
        },
        {
          "internalType": "uint256",
          "name": "startedAt",
          "type": "uint256"
        },
        {
          "internalType": "uint256",
          "name": "updatedAt",
          "type": "uint256"
        },
        {
          "internalType": "uint80",
          "name": "answeredInRound",
          "type": "uint80"
        }
      ],
      "stateMutability": "view",
      "type": "function",
      "constant": true
    },
    {
      "inputs": [
        {
          "internalType": "int256",
          "name": "_newPrice",
          "type": "int256"
        }
      ],
      "name": "setPrice",
      "outputs": [],
      "stateMutability": "nonpayable",
      "type": "function"
    }
  ],
  "bytecode": "0x608060405234801561001057600080fd5b5060405161028738038061028783398181016040528101906100329190610054565b806000819055505061009e565b60008151905061004e81610087565b92915050565b60006020828403121561006657600080fd5b60006100748482850161003f565b91505092915050565b6000819050919050565b6100908161007d565b811461009b57600080fd5b50565b6101da806100ad6000396000f3fe608060405234801561001057600080fd5b50600436106100365760003560e01c8063f7a308061461003b578063feaf968c14610057575b600080fd5b610055600480360381019061005091906100ba565b610079565b005b61005f610083565b604051610070959493929190610110565b60405180910390f35b8060008190555050565b6000806000806000600160005442426001945094509450945094509091929394565b6000813590506100b48161018d565b92915050565b6000602082840312156100cc57600080fd5b60006100da848285016100a5565b91505092915050565b6100ec81610163565b82525050565b6100fb8161016d565b82525050565b61010a81610177565b82525050565b600060a0820190506101256000830188610101565b61013260208301876100e3565b61013f60408301866100f2565b61014c60608301856100f2565b6101596080830184610101565b9695505050505050565b6000819050919050565b6000819050919050565b600069ffffffffffffffffffff82169050919050565b61019681610163565b81146101a157600080fd5b5056fea26469706673582212200c2bbfd66ef065618176a56e7f4d8a03e02442228fb5ba1ad2141740f22605ae64736f6c63430008000033",
  "immutableReferences": {},
  "source": "// SPDX-License-Identifier: MIT\r\npragma solidity ^0.8.0;\r\n\r\ncontract MockPriceOracle {\r\n    int private price;\r\n\r\n    // \r\n    constructor(int _initialPrice) {\r\n        price = _initialPrice;\r\n    }\r\n\r\n    //  Chainlink  latestRoundData \r\n    function latestRoundData() public view returns (\r\n        uint80 roundID,\r\n        int answer,\r\n        uint startedAt,\r\n        uint updatedAt,\r\n        uint80 answeredInRound\r\n    ) {\r\n        // \r\n        return (1, price, block.timestamp, block.timestamp, 1);\r\n    }\r\n\r\n    // \r\n    function setPrice(int _newPrice) public {\r\n        price = _newPrice;\r\n    }\r\n}\r\n",
  "sourcePath": "E:\\code\\bishe\\other\\link\\v2\\LinkChain\\contracts\\MockPriceOracle.sol",
  "compiler": {
    "name": "solc",
    "version": "0.8.0+commit.c7dfd78e.Emscripten.clang"
  },
  "schemaVersion": "3.4.16",
  "updatedAt": "2024-10-14T18:07:33.389Z",
  "networkType": "ethereum",
  "devdoc": {
    "kind": "dev",
    "methods": {},
    "version": 1
  },
  "userdoc": {
    "kind": "user",
    "methods": {},
    "version": 1
  }
}